:030000000209E50D
:0C09E500787FE4F6D8FD75811802090F38
:10096B0057656C636F6D6520746F204B5354353135
:0F097B00004B696E6773742053747564696F0065
:10090F0078087C007D007BFF7A09797C7E007F0E62
:10091F001208D0C29512099E7B007A007908E4FD77
:10092F007F021209437BFF7A09796B7D01E4FF1285
:04093F00094380FEEA
:10098A007580FFC290D291D295AF80C295EF548004
:03099A00FF70F4F7
:01099D002237
:1009C500AE0712098AC290C2918E80D295C2952235
:10099E007F381209C57F0C1209C57F061209C57F63
:0409AE00010209C574
:1009B200ED7004AC078004EF2440FCEC4480FFFCA3
:0309C2000209C562
:1009D500AE0712098AD290C2918E80D295C2952215
:100943008B168A1789181209B2AB16AA17A918129F
:1009530008F660130518E5187002051714F9120854
:08096300F6FF1209D580E22223
:10080000E709F608DFFA8046E709F208DFFA803EDA
:1008100088828C83E709F0A3DFFA8032E309F608C7
:10082000DFFA8078E309F208DFFA807088828C832F
:10083000E309F0A3DFFA806489828A83E0A3F608E3
:10084000DFFA805889828A83E0A3F208DFFA804CBD
:1008500080D280FA80C680D4806980F28033801094
:1008600080A680EA809A80A880DA80E280CA8033FD
:1008700089828A83ECFAE493A3C8C582C8CCC58375
:10088000CCF0A3C8C582C8CCC583CCDFE9DEE78045
:100890000D89828A83E493A3F608DFF9ECFAA9F0C4
:1008A000EDFB2289828A83ECFAE0A3C8C582C8CC1A
:1008B000C583CCF0A3C8C582C8CCC583CCDFEADE33
:1008C000E880DB89828A83E493A3F208DFF980CC95
:1008D00088F0EF60010E4E60C388F0ED2402B4048E
:1008E0000050B9F582EB2402B4040050AF23234535
:0608F00082239008507302
:1008F600BB010689828A83E0225002E722BBFE0200
:09090600E32289828A83E4932232
:00000001FF
