:030000000209DE14
:0C09DE00787FE4F6D8FD75812002080047
:100800001209757F0212090C8F08E50875F06484DF
:100810002430F509E50875F00A8475F00A84E5F0DE
:100820002430F50AE50875F00A84E5F02430F50B6C
:10083000E4F50CFB7A007909FDFF1208E40508AD28
:08084000087F0212092E80FE60
:02090C008F1347
:10090E001209AD7FA0120848AF131208481209ADA4
:0F091E007FA112084812087E8F14120960AF14CF
:01092D0022A7
:10092E008F138D141209AD7FA0120848AF13120851
:09093E0048AF14120848020960D8
:100989007580FFC290D291D295AF80C295EF20E7D2
:01099900F667
:01099A00223A
:1009BE00AE07120989C290C2918E80D295C295223D
:100975007F381209BE7F0C1209BE7F061209BE7FA1
:04098500010209BEA4
:10099B00ED7004AC078004EF2440FCEC4480FF02B4
:0209AB0009BE83
:1009CE00AE07120989D290C2918E80D295C295221D
:1008E4008B138A14891512099BAB13AA14A9151228
:1008F400094760130515E5157002051414F912096A
:0809040047FF1209CE80E22238
:1009AD00D2B6D2B700000000C2B600000000C2B738
:0109BD002217
:10096000C2B7C2B600000000D2B700000000D2B685
:05097000000000002260
:100848007E80EE601B5F7004C2B68002D2B60000E4
:100858000000D2B700000000C2B7EEC313FE80E26A
:10086800D2B600000000D2B7A2B692000000000085
:05087800C2B7A200B3AD
:01087D002258
:10087E00D2B67E80EE601D00000000D2B720B60515
:10088E00F452078003EE420700000000C2B7EEC329
:10089E0013FE80E0D2B600000000D2B700000000C8
:0208AE00C2B7CF
:0108B0002225
:1008B100D2B67E80EE601D00000000D2B720B605E2
:1008C100F452078003EE420700000000C2B7EEC3F6
:1008D10013FE80E0C2B600000000D2B700000000A5
:0208E100C2B79C
:0108E30022F2
:10094700BB010689828A83E0225002E722BBFE02AE
:09095700E32289828A83E49322E1
:00000001FF
