:030000000208C92A
:0C08C900787FE4F6D8FD7581200209104C
:100AC500C0F9A4B0999282F880908883C6A1868ED9
:100AA0000609FFFFFFFFFFFF010F00011000010813
:010AB0000045
:1009BC00D2AFC294D293120AB47F017E001209F610
:1009CC00D2B93000FDC200E511C4540F900AC59392
:1009DC00F50EE511540F93F50DE513C4540F93F573
:0A09EC000AE513540F93F50980D8B3
:0409F600AD07AC0697
:1009FA00E4FFFE1209557C037DE8120967EFF4044F
:100A0A00240D750F00F5105389F0438901850F8C69
:070A1A0085108AD2A9D28CDD
:010A210022B2
:100A66007580FFE59054F84508F59074092508F857
:100A7600E6F580E508C394055003050822E4F50869
:010A8600224D
:03000B00020A875F
:100A8700C0E0C0D075D000C000850F8C85108A12D9
:090A97000A66D000D0D0D0E03294
:020AB100C10082
:100AB400D2B353890F438910C28EC2ABD28AD2AA51
:010AC400220F
:100A2200E4F58DF58BD28E30B307E58DC39440404B
:100A3200F6C28EAF8DEFFEAD8B7C00E42DFFEC3E57
:020A4200FE2292
:100A4400E4F58DF58BD28E20B307E58DC394404039
:100A5400F6C28EAF8DEFFEAD8B7C00E42DFFEC3E35
:020A6400FE2270
:03001300020800E0
:10080000C0E0C0D075D000C000C002C003C004C0AA
:0508100005C006C00751
:100815007E0A7F44C3EF9499EE941E4009D3EF946A
:1008250033EE94224005C28B0208B6120A22C3EFAA
:100835009466EE940E4009D3EF9400EE94124004B2
:10084500C28B806DE4FBE4FA120A44C3EF9439EEDF
:1008550094014009D3EF94CEEE94024004C28B80FC
:1008650050120A22D3EF9439EE94014010EF94CE42
:10087500EE94025008E515C313F5158020D3EF94C7
:1008850041EE94054013EF94D7EE9406500BE51511
:10089500C313F5154315808004C28B80140ABA086A
:1008A500A774112BF8A6150BEB64047099D200C23E
:0108B5008BB7
:1008B600D007D006D005D004D003D002D000D0D0C7
:0308C600D0E0324D
:1008D5000209BCE493A3F8E493A34003F68001F274
:1008E50008DFF48029E493A3F85407240CC8C33324
:1008F500C4540F4420C8834004F456800146F6DFF3
:10090500E4800B0102040810204080900AA0E47ED8
:10091500019360BCA3FF543F30E509541FFEE493E7
:10092500A360010ECF54C025E060A840B8E493A3AE
:10093500FAE493A3F8E493A3C8C582C8CAC583CAD9
:10094500F0A3C8C582C8CAC583CADFE9DEE780BE91
:010AB3000042
:10095500EF8DF0A4A8F0CF8CF0A428CE8DF0A42EB6
:02096500FE2270
:10096700BC000BBE0029EF8DF084FFADF022E4CC74
:10097700F875F008EF2FFFEE33FEEC33FCEE9DEC3D
:10098700984005FCEE9DFE0FD5F0E9E4CEFD22ED83
:10099700F8F5F0EE8420D21CFEADF075F008EF2FCD
:1009A700FFED33FD4007985006D5F0F222C398FDBE
:0509B7000FD5F0EA225B
:00000001FF
