:03000000020B4AA6
:0C0B4A00787FE4F6D8FD758120020B9145
:100D070062616420636F6D6D616E642E0D0A00620F
:100D1700757A7A206F6E0062757A7A206F66660040
:100D270073686F7773747220000708080D160D1E1D
:020D37000D2786
:080E4200C102011C00011D00AA
:100E2A00D2AF7F017E00120CD37F807E25120D97F0
:080E3A00120E6C120E0E80FB7B
:100CD3007DB87C1B1209437C037DE8120955AC06E1
:100CE300AD07C3E49DFDE49CFC74212DFDE43CF5BC
:100CF3001C8D1D53890F438901851C8C851D8AD248
:030D0300A9D28CE6
:010D060022CA
:100C66008B128A138914AF181518EF6028AB150577
:100C760017E517AA167002051614F91208F6FFAB47
:100C8600120514E514AA137002051314F91208F6D6
:070C96006F60D3C322D322DB
:080A78008B088A09890A8D0B25
:100A8000780C7C007D007BFF7A0D79337E007F0639
:100A90001208D0E4FEEE900D3093FFE50BC39F40AB
:100AA00020EE25E0240CF8E6FC08E6AA047515FF04
:100AB0008A16F5178F18AB08AA09A90A120C664006
:100AC000040EBE03D0EE14600B14600C24027048B8
:100AD000D202804EC202804AAB08AA09A90A850B3D
:100AE00082758300E4120921900D32E4937E00297F
:100AF000F9EE3AFAE4FDFF120DBF900D32E493FFD8
:100B0000C3E50B9FFEC394105018AF06C374109E2C
:100B1000FBE4FD120E92800A7BFF7A0D79077D0EB1
:100B20008024AB08AA09A90AAF0B050B8F82758335
:100B300000740D120921AF0B050B8F8275830074B1
:090B40000A120921AD0B120DE7A8
:010B49002289
:03000B00020BD60F
:100BD600C0E0C0F0C083C082C0D075D000C000C0E5
:100BE60001C002C003C004C005C006C007851C8C36
:100BF600851D8A300204B2968002D2967F01120DBC
:100C06006BD007D006D005D004D003D002D001D0D7
:0C0C160000D0D0D082D083D0F0D0E032EB
:0D0E4A00C100C101011B00011900011A00C7
:100D970075985053890F438920AB07AA06E4F9F8E1
:100DA7007F807E70FDFC120C22EFF404F58D858D9B
:080DB7008BC2ABD2ACD28E223C
:100DE7008B128A138914AF051DEF601AC201AB126B
:100DF7000514E514AA137002051314F91208F6F581
:070E0700992001E280FB22AB
:060C9D008B088A09890A98
:100CA300EDD3951B4002AD1BE4FFEFC39D501B74B6
:100CB300002FF8E2FEAB08050AE50AAA097002054F
:0F0CC3000914F9EE12090F0F80E0E4F51BAF05DD
:010CD20022FF
:100E0E00300018C2007BFE7A0079407D28120C9DBE
:0B0E1E00AD077BFE7A007940120A78D5
:010E290022A6
:100D6B00E51BD394004021E519651B6007851B1912
:100D7B00E4F51A22E51AC3941E5010EF251AF51A42
:0B0D8B00C3941E4006D20022E4F519BC
:010D9600223A
:03002300020D3992
:100D3900C0E0C0D075D000C000C007309814C29878
:100D4900E51BC39440500BAF1B051B74002FF8E53E
:100D590099F2309904C299D201D007D000D0D0D0ED
:020D6900E03276
:100E58007580FFC290D291D295AF80C295EF548031
:030E6800FF70F424
:010E6B002264
:100EA300AE07120E58C290C2918E80D295C295227F
:100E8000ED7004AC078004EF2440FCEC4480FF02CA
:020E90000EA3AF
:100EB300AE07120E58D290C2918E80D295C295225F
:100DBF008B128A138914120E80AB12AA13A9141264
:100DCF0008F660130514E5147002051314F91208E0
:080DDF00F6FF120EB380E222C0
:100E9200120E80AF031BEF60077F20120EB380F3A8
:010EA200222D
:100E6C007F38120EA37F0C120EA37F06120EA37FE7
:040E7C0001020EA3BE
:100B5600020E2AE493A3F8E493A34003F68001F27D
:100B660008DFF48029E493A3F85407240CC8C333A0
:100B7600C4540F4420C8834004F456800146F6DF6F
:100B8600E4800B0102040810204080900E42E47EAF
:100B9600019360BCA3FF543F30E509541FFEE49364
:100BA600A360010ECF54C025E060A840B8E493A32B
:100BB600FAE493A3F8E493A3C8C582C8CAC583CA56
:100BC600F0A3C8C582C8CAC583CADFE9DEE780BE0E
:010E5700009A
:10080000E709F608DFFA8046E709F208DFFA803EDA
:1008100088828C83E709F0A3DFFA8032E309F608C7
:10082000DFFA8078E309F208DFFA807088828C832F
:10083000E309F0A3DFFA806489828A83E0A3F608E3
:10084000DFFA805889828A83E0A3F208DFFA804CBD
:1008500080D280FA80C680D4806980F28033801094
:1008600080A680EA809A80A880DA80E280CA8033FD
:1008700089828A83ECFAE493A3C8C582C8CCC58375
:10088000CCF0A3C8C582C8CCC583CCDFE9DEE78045
:100890000D89828A83E493A3F608DFF9ECFAA9F0C4
:1008A000EDFB2289828A83ECFAE0A3C8C582C8CC1A
:1008B000C583CCF0A3C8C582C8CCC583CCDFEADE33
:1008C000E880DB89828A83E493A3F208DFF980CC95
:1008D00088F0EF60010E4E60C388F0ED2402B4048E
:1008E0000050B9F582EB2402B4040050AF23234535
:0608F00082239008507302
:1008F600BB010689828A83E0225002E722BBFE0200
:09090600E32289828A83E4932232
:10090F00BB010689828A83F0225002F722BBFE01C7
:02091F00F322C1
:10092100F8BB010DE58229F582E5833AF583E8F00C
:10093100225006E92582C8F622BBFE05E92582C8B8
:02094100F222A0
:10094300EF8DF0A4A8F0CF8CF0A428CE8DF0A42EC8
:02095300FE2282
:10095500BC000BBE0029EF8DF084FFADF022E4CC86
:10096500F875F008EF2FFFEE33FEEC33FCEE9DEC4F
:10097500984005FCEE9DFE0FD5F0E9E4CEFD22ED95
:10098500F8F5F0EE8420D21CFEADF075F008EF2FDF
:10099500FFED33FD4007985006D5F0F222C398FDD0
:0509A5000FD5F0EA226D
:100C2200C2D5E830E70FB2D5E4C39BFBE49AFAE4FD
:100C320099F9E498F8EC30E717B2D5120C5812097A
:100C4200E6E4C39BFBE49AFAE499F9E498F880039A
:100C52001209E630D50DE4C39FFFE49EFEE49DFD3C
:040C6200E49CFC22F0
:1009AA0075F008758200EF2FFFEE33FECD33CDCC04
:1009BA0033CCC58233C5829BED9AEC99E582984087
:1009CA000CF582EE9BFEED9AFDEC99FC0FD5F0D664
:1009DA00E4CEFBE4CDFAE4CCF9A88222B800C1B98E
:1009EA000059BA002DEC8BF084CFCECDFCE5F0CBCC
:1009FA00F97818EF2FFFEE33FEED33FDEC33FCEB05
:100A0A0033FB10D703994004EB99FB0FD8E5E4F9BF
:100A1A00FA227818EF2FFFEE33FEED33FDEC33FCAC
:100A2A00C933C910D7059BE99A4007EC9BFCE99AA0
:100A3A00F90FD8E0E4C9FAE4CCFB2275F010EF2FE5
:100A4A00FFEE33FEED33FDCC33CCC833C810D707E5
:100A5A009BEC9AE899400AED9BFDEC9AFCE899F820
:0E0A6A000FD5F0DAE4CDFBE4CCFAE4C8F922B3
:00000001FF
