:03000000020A7E73
:0C0A7E00787FE4F6D8FD758115020AC5EA
:100B0A00C0F9A4B0999282F880908883C6A1868E93
:0B0B1A000608FFFFFFFFFFFF010E00B9
:10080000D293C294758901758CFC758A67D28CD29B
:10081000AFD2A9308DFDC28DE50E60F7E4F50EE58F
:10082000152401F515E43514F514E43513F513E436
:100830003512F512E47B0AFAF9F8AF15AE14AD13D0
:10084000AC1212095E740A2BF582740B3AF583E43C
:1008500093F508E47B0AFAF9F8AF15AE14AD13ACC2
:100860001212095EE47B0AFAF9F812095E740A2B87
:10087000F582740B3AF583E493F509E47B64FAF9A5
:10088000F8AF15AE14AD13AC1212095EE47B0AFA90
:10089000F9F812095E740A2BF582740B3AF583E4B9
:1008A00093F50AE47BE87A03F9F8AF15AE14AD13BB
:1008B000AC1212095EE47B0AFAF9F812095E740AB6
:1008C0002BF582740B3AF583E493F50BE47B107AF5
:1008D00027F9F8AF15AE14AD13AC1212095EE47B24
:1008E0000AFAF9F812095E740A2BF582740B3AF5CC
:1008F00083E493F50C7BA07A8679017800AF15AE7E
:1009000014AD13AC1212095EE47B0AFAF9F812096D
:100910005E740A2BF582740B3AF583E493F50D02AD
:020920000813BA
:03000B000209F0F7
:1009F000C0E0C0D0758CFC758A670510E5107002E8
:100A0000050FC394E8E50F94034009750F007510B6
:100A100000750E017580FFE51114601D1460271428
:100A2000603114603B1460452405704DC292C29140
:100A3000C29005118508808040C292C291D2900573
:100A4000118509808033C292D291C2900511850A26
:100A5000808026C292D291D2900511850B80801998
:100A6000D292C291C2900511850C80800CD292C2A4
:0E0A700091D290751100850D80D0D0D0E0326B
:100A8A00020800E493A3F8E493A34003F68001F27A
:100A9A0008DFF48029E493A3F85407240CC8C3336D
:100AAA00C4540F4420C8834004F456800146F6DF3C
:100ABA00E4800B0102040810204080900B1AE47EA7
:100ACA00019360BCA3FF543F30E509541FFEE49331
:100ADA00A360010ECF54C025E060A840B8E493A3F8
:100AEA00FAE493A3F8E493A3C8C582C8CAC583CA23
:100AFA00F0A3C8C582C8CAC583CADFE9DEE780BEDB
:010B250000CF
:1009220075F008758200EF2FFFEE33FECD33CDCC8C
:1009320033CCC58233C5829BED9AEC99E58298400F
:100942000CF582EE9BFEED9AFDEC99FC0FD5F0D6EC
:10095200E4CEFBE4CDFAE4CCF9A88222B800C1B916
:100962000059BA002DEC8BF084CFCECDFCE5F0CB54
:10097200F97818EF2FFFEE33FEED33FDEC33FCEB8D
:1009820033FB10D703994004EB99FB0FD8E5E4F948
:10099200FA227818EF2FFFEE33FEED33FDEC33FC35
:1009A200C933C910D7059BE99A4007EC9BFCE99A29
:1009B200F90FD8E0E4C9FAE4CCFB2275F010EF2F6E
:1009C200FFEE33FEED33FDCC33CCC833C810D7076E
:1009D2009BEC9AE899400AED9BFDEC9AFCE899F8A9
:0E09E2000FD5F0DAE4CDFBE4CCFAE4C8F9223C
:00000001FF
