:030000000209D220
:0C09D200787FE4F6D8FD758120020A1938
:100CED0041494E30202041494E31202041494E335B
:010CFD0000F6
:0B0D2F00C1800118000119000117002D
:100ADA00D2AF7F0A7E00120A5E120CB57BFF7A0C37
:100AEA0079EDE4FDFF120C5B3000FDC200E4FF1259
:100AFA000C2B120B387B007A0079097D01E4FF1276
:100B0A000C5B7F01120C2B120B387B007A007909DF
:100B1A007D017F06120C5B7F03120C2B120B387BB4
:0E0B2A00007A0079097D017F0C120C5B80BA05
:020C2B008F1325
:100C2D00120CFE7F90120B8F4006120CA07F00223B
:100C3D00E5134440FF120B8F120CFE7F91120B8FA8
:0D0C4D00120BF8120BC58F14120CA0AF147F
:010C5A002277
:0A0B38008F087B007A007909AD08F0
:100B42008B138A148915ED75F019A4FFAEF07C00A1
:100B52007DFF12084DAD07ED75F00A8424301208AE
:100B620019AB13AA14A915900001742E12082BEDCB
:100B720075F00A84E5F0243090000212082B9000F0
:0D0B820003745612082B900004E402082BA7
:100A5E0075160075151075140E751300EE3395E0AE
:100A6E00FDFCAB16AA15A914A8131208A2E47BE884
:100A7E007A03F9F812092D8F168E158D148C13C367
:100A8E00E49516F516E49515F51574019514F514FF
:100A9E00E49513F513E516240CF516E43515F51546
:100AAE00E43514F514E43513F513AF16AE15AD1485
:100ABE00FC78081209BF8F188516195389F04389DF
:0B0ACE000185188C85198AD2A9D28CF2
:010AD90022FA
:03000B00020C8361
:040C8300C0E0C0D03D
:100C870085188C85198A0517E517C3941E400575C5
:040C97001700D20070
:050C9B00D0D0D0E032D2
:100CFE00D2B6D2B700000000C2B600000000C2B7E4
:010D0E0022C2
:100CA000C2B7C2B600000000D2B700000000D2B642
:050CB00000000000221D
:100B8F007E80EE601B5F7004C2B68002D2B600009A
:100B9F000000D2B700000000C2B7EEC313FE80E220
:100BAF00D2B600000000D2B7A2B69201000000003A
:050BBF00C2B7A201B362
:010BC400220E
:100BC500D2B67E80EE601D00000000D2B720B605CB
:100BD500F452078003EE420700000000C2B7EEC3DF
:100BE50013FE80E0D2B600000000D2B7000000007E
:020BF500C2B785
:010BF70022DB
:100BF800D2B67E80EE601D00000000D2B720B60598
:100C0800F452078003EE420700000000C2B7EEC3AB
:100C180013FE80E0C2B600000000D2B7000000005A
:020C2800C2B751
:010C2A0022A7
:100CC9007580FFC290D291D295AF80C295EF20E78F
:010CD900F624
:010CDA0022F7
:100D0F00AE07120CC9C290C2918E80D295C29522A5
:100D1F00AE07120CC9D290C2918E80D295C2952285
:100CDB00ED7004AC078004EF2440FCEC4480FF0271
:020CEB000D0FEB
:100C5B008B138A148915120CDBAB13AA14A915126A
:100C6B00080060130515E5157002051414F9120838
:080C7B0000FF120D1F80E222B0
:100CB5007F38120D0F7F0C120D0F7F06120D0F7F5F
:040CC50001020D0F0C
:1009DE00020ADAE493A3F8E493A34003F68001F24B
:1009EE0008DFF48029E493A3F85407240CC8C3331A
:1009FE00C4540F4420C8834004F456800146F6DFE9
:100A0E00E4800B0102040810204080900D2FE47E3C
:100A1E00019360BCA3FF543F30E509541FFEE493DD
:100A2E00A360010ECF54C025E060A840B8E493A3A4
:100A3E00FAE493A3F8E493A3C8C582C8CAC583CACF
:100A4E00F0A3C8C582C8CAC583CADFE9DEE780BE87
:010D3A0000B8
:10080000BB010689828A83E0225002E722BBFE02F6
:09081000E32289828A83E4932229
:10081900BB010689828A83F0225002F722BBFE01BE
:02082900F322B8
:10082B00F8BB010DE58229F582E5833AF583E8F003
:10083B00225006E92582C8F622BBFE05E92582C8AF
:02084B00F22297
:10084D00BC000BBE0029EF8DF084FFADF022E4CC8F
:10085D00F875F008EF2FFFEE33FEEC33FCEE9DEC58
:10086D00984005FCEE9DFE0FD5F0E9E4CEFD22ED9E
:10087D00F8F5F0EE8420D21CFEADF075F008EF2FE8
:10088D00FFED33FD4007985006D5F0F222C398FDD9
:05089D000FD5F0EA2276
:1008A200E88FF0A4CC8BF0A42CFCE98EF0A42CFCF5
:1008B2008AF0EDA42CFCEA8EF0A4CDA8F08BF0A473
:1008C2002DCC3825F0FDE98FF0A42CCD35F0FCEBD2
:1008D2008EF0A4FEA9F0EB8FF0A4CFC5F02ECD3997
:0F08E200FEE43CFCEAA42DCE35F0FDE43CFC2204
:1008F10075F008758200EF2FFFEE33FECD33CDCCBE
:1009010033CCC58233C5829BED9AEC99E582984040
:100911000CF582EE9BFEED9AFDEC99FC0FD5F0D61D
:10092100E4CEFBE4CDFAE4CCF9A88222B800C1B947
:100931000059BA002DEC8BF084CFCECDFCE5F0CB85
:10094100F97818EF2FFFEE33FEED33FDEC33FCEBBE
:1009510033FB10D703994004EB99FB0FD8E5E4F979
:10096100FA227818EF2FFFEE33FEED33FDEC33FC66
:10097100C933C910D7059BE99A4007EC9BFCE99A5A
:10098100F90FD8E0E4C9FAE4CCFB2275F010EF2F9F
:10099100FFEE33FEED33FDCC33CCC833C810D7079F
:1009A1009BEC9AE899400AED9BFDEC9AFCE899F8DA
:0E09B1000FD5F0DAE4CDFBE4CCFAE4C8F9226D
:1009BF00E8600FECC313FCED13FDEE13FEEF13FF16
:0309CF00D8F1223A
:00000001FF
