:030000000208C62D
:0C08C600787FE4F6D8FD75813202090D40
:1009520020280BFFFFFFFFFFFFFFFFFF8180FCFC52
:100962008081FFC78381C0C08183C7FF3C3C0000F8
:100972003C3CFFFFFFFFFFFFFFFFFF0108000109F3
:0409820000010A0066
:10098700C293C294D2AFD2A9758901758CFC758ABE
:0509970067D28C80FE18
:03000B00020800E8
:0D080000C0E0C083C082C0D075D000C00031
:10080D00758CFC758A677580FFE508B40800400398
:10081D000208A4900827F828287302083F02084B05
:10082D0002085702086302086F02087B020887025C
:10083D000893C292C291C2900508740B8053C29264
:10084D00C291D2900508740C8047C292D291C29089
:10085D000508740D803BC292D291D2900508740E9A
:10086D00802FD292C291C2900508740F8023D2922C
:10087D00C291D290050874108017D292D291C29075
:10088D0005087411800BD292D291D2907508007424
:10089D00122509F8E6F580050AE50AC394FA400E1B
:0E08AD00750A000509E509942040037509004D
:0B08BB00D000D0D0D082D083D0E0323B
:1008D200020987E493A3F8E493A34003F68001F2AC
:1008E20008DFF48029E493A3F85407240CC8C33327
:1008F200C4540F4420C8834004F456800146F6DFF6
:10090200E4800B0102040810204080900952E47E2A
:10091200019360BCA3FF543F30E509541FFEE493EA
:10092200A360010ECF54C025E060A840B8E493A3B1
:10093200FAE493A3F8E493A3C8C582C8CAC583CADC
:10094200F0A3C8C582C8CAC583CADFE9DEE780BE94
:010986000070
:00000001FF
