:030000000208CE25
:0C08CE00787FE4F6D8FD75812002091542
:0F0A6900C101C102C100010900010A000108001A
:100A0400D2AF7F807E25120A2220B0FD120A3E302A
:0E0A140001FDE50904FF120A592002ED80FBE6
:100A22005389F0438902AB07AA06E4F9F8FF7E1066
:0C0A32007D0EFC1209C0EFF404F58C22CC
:100A3E00AF8CC3E49FFF74019400C313EF13F4044F
:0B0A4E00F58AD2A9D28CC201C200229E
:100A59008F0A858C8AD2A9D28CC2B1C202D2002255
:03000B0002095A8D
:04095A00C0E0C0D069
:10095E003000280508E508D39408500DE50A1392D7
:10096E00B1E50AC313F50A8044E508B40904D2B10F
:10097E00803B750800C28CD2028032E508700D20D3
:10098E00B006F50905088025C28C8021E508D394B0
:10099E00085010E509C313F50930B003430980056B
:0D09AE0008800A750800C28C30B002D2012A
:0509BB00D0D0D0E032B5
:1008DA00020A04E493A3F8E493A34003F68001F226
:1008EA0008DFF48029E493A3F85407240CC8C3331F
:1008FA00C4540F4420C8834004F456800146F6DFEE
:10090A00E4800B0102040810204080900A69E47E0A
:10091A00019360BCA3FF543F30E509541FFEE493E2
:10092A00A360010ECF54C025E060A840B8E493A3A9
:10093A00FAE493A3F8E493A3C8C582C8CAC583CAD4
:10094A00F0A3C8C582C8CAC583CADFE9DEE780BE8C
:010A7800007D
:1009C000C2D5E830E70FB2D5E4C39BFBE49AFAE462
:1009D00099F9E498F8EC30E717B2D51209F6120845
:1009E0003CE4C39BFBE49AFAE499F9E498F88003A9
:1009F00012083C30D50DE4C39FFFE49EFEE49DFD4C
:040A0000E49CFC2254
:1008000075F008758200EF2FFFEE33FECD33CDCCAF
:1008100033CCC58233C5829BED9AEC99E582984032
:100820000CF582EE9BFEED9AFDEC99FC0FD5F0D60F
:10083000E4CEFBE4CDFAE4CCF9A88222B800C1B939
:100840000059BA002DEC8BF084CFCECDFCE5F0CB77
:10085000F97818EF2FFFEE33FEED33FDEC33FCEBB0
:1008600033FB10D703994004EB99FB0FD8E5E4F96B
:10087000FA227818EF2FFFEE33FEED33FDEC33FC58
:10088000C933C910D7059BE99A4007EC9BFCE99A4C
:10089000F90FD8E0E4C9FAE4CCFB2275F010EF2F91
:1008A000FFEE33FEED33FDCC33CCC833C810D70791
:1008B0009BEC9AE899400AED9BFDEC9AFCE899F8CC
:0E08C0000FD5F0DAE4CDFBE4CCFAE4C8F9225F
:00000001FF
