:030000000209569C
:0C095600787FE4F6D8FD758120020800CF
:100800001208DB7F501208EF920075083575093029
:10081000750A3AA200E4332430F50BE4F50CFB7AB8
:10082000007908FDFF1208857F621208EF920075BB
:100830000836750932750A3AA200E4332430F50B04
:10084000E4F50CFB7A007908FD7F0812088580FE2C
:10092500D2B6D2B700000000C2B600000000C2B7C0
:01093500229F
:1008C600C2B7C2B600000000D2B700000000D2B620
:0508D6000000000022FB
:100850007E80EE601B5F7004C2B68002D2B60000DC
:100860000000D2B700000000C2B7EEC313FE80E262
:10087000D2B600000000D2B7A2B69202000000007B
:04088000C2B7A20257
:010884002251
:1008EF00120925EF25E0FF12085092011208C6A247
:0108FF0001F7
:0109000022D4
:100901007580FFC290D291D295AF80C295EF20E75A
:01091100F6EF
:0109120022C2
:10093600AE07120901C290C2918E80D295C295224D
:1008DB007F381209367F0C1209367F061209367FD4
:0408EB0001020936C7
:10091300ED7004AC078004EF2440FCEC4480FF023C
:02092300093693
:10094600AE07120901D290C2918E80D295C295222D
:100885008B128A138914120913AB12AA13A9141215
:1008950008AD60130514E5147002051314F9120868
:0808A500ADFF12094680E222BA
:1008AD00BB010689828A83E0225002E722BBFE0249
:0908BD00E32289828A83E493227C
:00000001FF
