:03000000020CF0FF
:0C0CF000787FE4F6D8FD75814E020D37C8
:0C10BD0030002B002D002A002F003D0009
:100EA200014700014C00014D00014E00043F0000CB
:0E0EB20000000443000000000448000000009F
:10100A00D2AF7F017E00120FB512103E7BFF7A101D
:0E101A0079BD7D017F0F120FE2120D7C80FB6D
:100FB5007D007C1012082B7C037DE812083DAC06F1
:100FC500AD07C3E49DFDE49CF5478D4C5389F04383
:0C0FD500890185478C854C8AD2A9D28CFA
:010FE10022ED
:10102800E4F542F541F540F53FF546F545F544F55B
:0610380043F54D0210C952
:060B93007B007A00790CE2
:0E0B99008B198A1A891B8F1F8E1E8D1D8C1CB6
:100BA700E4F520F521EC33501C1208E18F1F8E1E4F
:100BB7008D1D8C1C051BE51B7002051A14F9742D7D
:100BC7001208190521E47B0AFAF9F8AF1FAE1EAD2A
:100BD7001DAC1C120EFAAF03AE20052074222EF8AE
:100BE700A607AF1FAE1EAD1DAC1CE47B0AFAF9F8D1
:100BF700120EFA8F1F8E1E8D1D8C1CE4FFFEFDFC4E
:100C0700AB1FAA1EA91DA81CD31208EF50B7E520D9
:100C17002521F521AF201520D3EF64809480401D56
:100C270074222520F8E62430FFAB19051BE51BAA23
:100C37001A7002051A14F9EF12081980D7AB19AA0E
:090C47001AA91BE4120819AF21DF
:010C50002281
:020C51008F0B07
:100C5300E54DD394014003121028E54D703D7F0A02
:100C6300FEFDFCAB42AA41A940A83F120892A8048A
:100C7300A905AA06AB07E4FCFDFEEB250BF542EE46
:100C83003AF541ED39F540EC38F53F7B007A0079D0
:100C93000DAF46AE45AD44AC43803BE47F0AFEFD59
:100CA300FCAB46AA45A944A843120892A804A90587
:100CB300AA06AB07E4FCFDFEEB250BF546EE3AF581
:100CC30045ED39F544EC38F5437B007A00790DAFF7
:100CD30046AE45AD44FC120B998F0CC37410950CB2
:0C0CE300FF7B007A00790D7D01120FE20A
:010CEF0022E2
:100F7F008F19ED14601214601714601C2403702570
:100F8F007BFF7A1079BF80167BFF7A1079C1800EB4
:100F9F007BFF7A1079C380067BFF7A1079C5AD1974
:060FAF00E4FF120FE22234
:020E49008F0B0D
:100E4B00E54D7052FB7A00790DAF42AE41AD40AC2F
:100E5B003F120B998F0CC37410950CFBE4FDFF1222
:100E6B00109CC37410950CFF7B007A00790DE4FD88
:100E7B00120FE2AD0B7F01120F7F7B0E7D017F0105
:100E8B0012109C7BFF7A1079BD7D017F0F120FE250
:060E9B00850B4E754D01B0
:010EA100222E
:1009D300E54D64016003020ABD754D02E54E1460E6
:1009E3002414603C14604E24037065E5422546F5EB
:1009F3004BE5413545F54AE5403544F549E53F3595
:100A030043F548804BC3E5429546F54BE541954593
:100A1300F54AE5409544F549E53F9543F54880306F
:100A2300AF46AE45AD44AC43AB42AA41A940A83F53
:100A33001208928013AB46AA45A944A843AF42AE1D
:100A430041AD40AC3F120EFA8F4B8E4A8D498C4814
:100A5300AF46AE45AD44AC43120B938F0BAD4EE4A2
:100A6300FF120F7FC3740F950BFBE4FD7F01121080
:100A73009CC37410950BFF7B007A00790CE4FD1284
:100A83000FE2AF4BAE4AAD49AC48120B938F0B7BD1
:100A9300FF7A1079C77D01E4FF120FE2C3740F954B
:100AA3000BFB7D017F0112109CC37410950BFF7B20
:0A0AB300007A00790C7D01120FE2B9
:010ABD002216
:100DEE008F0AE50AC39430400FE50AD394395008B0
:100DFE00E50A24D0FF020C51E50AB42604E4FF8074
:100E0E0019E50AB428047F018010E50AB425047F91
:100E1E00028007E50AB427057F03020E49E50AB4EE
:100E2E000D030209D3E50AB41B101210287BFF7ABA
:0B0E3E001079BD7D017F0F120FE22232
:03000B00020F3EA3
:100F3E00C0E0C0F0C083C082C0D075D000C000C079
:100F4E0001C002C003C004C005C006C00785478C9F
:100F5E00854C8A120ABED007D006D005D004D00325
:100F6E00D002D001D000D0D0D082D083D0F0D0E04B
:010F7E003240
:101078007580FFC290D291D295AF80C295EF20E7DC
:01108800F671
:011089002244
:10105200AE071210787580FFC290C2918E80D29531
:03106200C2952212
:10108A00ED7004AC078004EF2440FCEC4480FF02BE
:02109A001052F2
:10106500AE071210787580FFD290C2918E80D2950E
:03107500C29522FF
:100FE2008B1A8A1B891C12108AAB1AAA1BA91C1203
:100FF20008006013051CE51C7002051B14F9120899
:0810020000FF12106580E222DC
:10103E007F381210527F0C1210527F061210527F00
:04104E000102105239
:0510C9007F010210523E
:10109C0012108AAF031BEF60077F2012106580F3DC
:0110AC002221
:1010AD00313233263435362537383928301B0D2764
:100EC0009010010101010101010101010101010174
:100ED0000101900001010101010101010101010174
:100EE00001010101012E00102FFFFFFFFFFFFFFF97
:090EF000FFFFFFFFFFFFFFFFFF02
:100D7C00E4F508E4F509E50825E025E0240025095B
:100D8C00F8E2FFE50825E025E024102509F8E26FDC
:100D9C00603DEF6020E50825E025E024ADF582E418
:100DAC003410F583E5822509F582E43583F583E477
:100DBC0093FF120DEEE50825E025E024102509F837
:100DCC00E2FFE50825E025E024002509F8EFF2050F
:100DDC0009E509C39404409E0508E508C394044042
:010DEC009274
:010DED0022E3
:100ABE00E52E25E025E0242FF8E625E0FFA2A4E4AC
:100ACE00334FFFE52E25E025E0242FF8A607E52E6F
:100ADE0025E025E02430F8E625E0FFA2A5E4334F1B
:100AEE00FFE52E25E025E02430F8A607E52E25E0CB
:100AFE0025E02431F8E625E0FFA2A6E4334FFFE51A
:100B0E002E25E025E02431F8A607E52E25E025E088
:100B1E002432F8E625E0FFA2A7E4334FFFE52E25A9
:100B2E00E025E02432F8A607E4FFE52E25E025E0D7
:100B3E00242F2FF8E6FE540F700EE52E25E025E04B
:100B4E0024102FF8E4F28011EE30E00DE52E25E0B2
:100B5E0025E024102FF87401F20FBF04CD052E539B
:100B6E002E03E52E14600F1460111460132403700D
:100B7E0013D2A0C2A322D2A3C2A222D2A2C2A12267
:040B8E00D2A1C2A08E
:010B92002240
:100CFC0002100AE493A3F8E493A34003F68001F2F4
:100D0C0008DFF48029E493A3F85407240CC8C333F8
:100D1C00C4540F4420C8834004F456800146F6DFC7
:100D2C00E4800B0102040810204080900EA2E47EA7
:100D3C00019360BCA3FF543F30E509541FFEE493BC
:100D4C00A360010ECF54C025E060A840B8E493A383
:100D5C00FAE493A3F8E493A3C8C582C8CAC583CAAE
:100D6C00F0A3C8C582C8CAC583CADFE9DEE780BE66
:010EF90000F8
:10080000BB010689828A83E0225002E722BBFE02F6
:09081000E32289828A83E4932229
:10081900BB010689828A83F0225002F722BBFE01BE
:02082900F322B8
:10082B00EF8DF0A4A8F0CF8CF0A428CE8DF0A42EE1
:02083B00FE229B
:10083D00BC000BBE0029EF8DF084FFADF022E4CC9F
:10084D00F875F008EF2FFFEE33FEEC33FCEE9DEC68
:10085D00984005FCEE9DFE0FD5F0E9E4CEFD22EDAE
:10086D00F8F5F0EE8420D21CFEADF075F008EF2FF8
:10087D00FFED33FD4007985006D5F0F222C398FDE9
:05088D000FD5F0EA2286
:10089200E88FF0A4CC8BF0A42CFCE98EF0A42CFC05
:1008A2008AF0EDA42CFCEA8EF0A4CDA8F08BF0A483
:1008B2002DCC3825F0FDE98FF0A42CCD35F0FCEBE2
:1008C2008EF0A4FEA9F0EB8FF0A4CFC5F02ECD39A7
:0F08D200FEE43CFCEAA42DCE35F0FDE43CFC2214
:100EFA00C2D5E830E70FB2D5E4C39BFBE49AFAE423
:100F0A0099F9E498F8EC30E717B2D5120F301209C4
:100F1A0041E4C39BFBE49AFAE499F9E498F8800364
:100F2A0012094130D50DE4C39FFFE49EFEE49DFD06
:040F3A00E49CFC2215
:0E08E100C3E49FFFE49EFEE49DFDE49CFC2228
:1008EF00EB9FF5F0EA9E42F0E99D42F0EC6480C880
:0608FF0064809845F02220
:1009050075F008758200EF2FFFEE33FECD33CDCCA9
:1009150033CCC58233C5829BED9AEC99E58298402C
:100925000CF582EE9BFEED9AFDEC99FC0FD5F0D609
:10093500E4CEFBE4CDFAE4CCF9A88222B800C1B933
:100945000059BA002DEC8BF084CFCECDFCE5F0CB71
:10095500F97818EF2FFFEE33FEED33FDEC33FCEBAA
:1009650033FB10D703994004EB99FB0FD8E5E4F965
:10097500FA227818EF2FFFEE33FEED33FDEC33FC52
:10098500C933C910D7059BE99A4007EC9BFCE99A46
:10099500F90FD8E0E4C9FAE4CCFB2275F010EF2F8B
:1009A500FFEE33FEED33FDCC33CCC833C810D7078B
:1009B5009BEC9AE899400AED9BFDEC9AFCE899F8C6
:0E09C5000FD5F0DAE4CDFBE4CCFAE4C8F92259
:00000001FF
