:03000000020947AB
:0C094700787FE4F6D8FD758107020953A3
:0B095300D2AF7F807E2512091280FECB
:1009120075985053890F438920AB07AA06E4F9F86A
:100922007F807E70FDFC1208CEEFF404F58D858D7C
:080932008BC2ABD2ACD28E22C5
:0300230002093A95
:0D093A00309804C2980599309902C2993294
:1008CE00C2D5E830E70FB2D5E4C39BFBE49AFAE455
:1008DE0099F9E498F8EC30E717B2D512090412082A
:1008EE003CE4C39BFBE49AFAE499F9E498F880039C
:1008FE0012083C30D50DE4C39FFFE49EFEE49DFD3F
:04090E00E49CFC2247
:1008000075F008758200EF2FFFEE33FECD33CDCCAF
:1008100033CCC58233C5829BED9AEC99E582984032
:100820000CF582EE9BFEED9AFDEC99FC0FD5F0D60F
:10083000E4CEFBE4CDFAE4CCF9A88222B800C1B939
:100840000059BA002DEC8BF084CFCECDFCE5F0CB77
:10085000F97818EF2FFFEE33FEED33FDEC33FCEBB0
:1008600033FB10D703994004EB99FB0FD8E5E4F96B
:10087000FA227818EF2FFFEE33FEED33FDEC33FC58
:10088000C933C910D7059BE99A4007EC9BFCE99A4C
:10089000F90FD8E0E4C9FAE4CCFB2275F010EF2F91
:1008A000FFEE33FEED33FDCC33CCC833C810D70791
:1008B0009BEC9AE899400AED9BFDEC9AFCE899F8CC
:0E08C0000FD5F0DAE4CDFBE4CCFAE4C8F9225F
:00000001FF
