:03000000020B15DB
:0C0B1500787FE4F6D8FD75814002090AE3
:10090A00120AAC7B007A007921753E057D901208A7
:10091A00AE753D00753E00753F217540057B007A36
:10092A000079261208007B007A007926E4FDFF127E
:10093A000A6FE4FF74212FF8EF26F60FBF05F57B47
:0F094A00007A007921753E057D9012095980FED3
:060800008B3A8A3B893CA3
:10080600AF401540EF70030208A4AB3DAA3EA93FD6
:10081600120A44C4540FFFD394095012EF2430FE39
:10082600AB3A053CE53CAA3B7014053B8010EF242F
:1008360037FEAB3A053CE53CAA3B7002053B14F992
:10084600EE120A5DAB3DAA3EA93F120A44540FFFC1
:10085600D394095012EF2430FFAB3A053CE53CAA8D
:100866003B7014053B8010EF2437FFAB3A053CE59F
:100876003CAA3B7002053B14F9EF120A5DAB3A0540
:100886003CE53CAA3B7002053B14F97420120A5D54
:100896007401253FF53FE4353EF53E020806AB3AC6
:0808A600AA3BA93CE4020A5D33
:100AE400D2B6D2B700000000C2B600000000C2B700
:010AF40022DF
:100A9700C2B7C2B600000000D2B700000000D2B64D
:050AA700000000002228
:1009A8007E80EE601B5F7004C2B68002D2B6000083
:1009B8000000D2B700000000C2B7EEC313FE80E209
:1009C800D2B600000000D2B7A2B692000000000024
:0509D800C2B7A200B34C
:0109DD0022F7
:1009DE00D2B67E80EE601D00000000D2B720B605B4
:1009EE00F452078003EE420700000000C2B7EEC3C8
:1009FE0013FE80E0D2B600000000D2B70000000067
:020A0E00C2B76D
:010A100022C3
:100A1100D2B67E80EE601D00000000D2B720B60580
:100A2100F452078003EE420700000000C2B7EEC394
:100A310013FE80E0C2B600000000D2B70000000043
:020A4100C2B73A
:010A43002290
:100AC0007580FFC290D291D295AF80C295EF20E79A
:010AD000F62F
:010AD1002202
:100AF500AE07120AC0C290C2918E80D295C29522CD
:100AAC007F38120AF57F0C120AF57F06120AF57FC1
:040ABC0001020AF534
:100AD200ED7004AC078004EF2440FCEC4480FF027C
:020AE2000AF513
:100B0500AE07120AC0D290C2918E80D295C29522AC
:100A6F008B3A8A3B893C120AD2AB3AAA3BA93C1279
:100A7F000A446013053CE53C7002053B14F9120A69
:080A8F0044FF120B0580E22276
:1008AE008B3A8A3B893C8D3D120AE47FA01209A83F
:1008BE004005120A9780F1AF3D1209A8120AE47F93
:1008CE00A11209A8E53ED394014019120A11AB3AC0
:1008DE00053CE53CAA3B7002053B14F9EF120A5D9C
:1008EE00153E80E01209DEAB3A053CE53CAA3B70B2
:0C08FE0002053B14F9EF120A5D020A9794
:100959008B3A8A3B893C8D3DE53ED39400403F125A
:100969000AE47FA01209A84005120A9780F1AF3D59
:100979001209A8E53ED39400401FAB3A053CE53C7B
:10098900AA3B7002053B14F9120A44FF1209A81583
:0F0999003E053DE53D540770DA120A9780BA22F9
:100A4400BB010689828A83E0225002E722BBFE02B0
:090A5400E32289828A83E49322E3
:100A5D00BB010689828A83F0225002F722BBFE0178
:020A6D00F32272
:00000001FF
