:03000000020AFEF3
:0C0AFE00787FE4F6D8FD75814002090203
:10090200120A957B007A007921753E057D901208C6
:10091200AE753D00753E00753F217540057B007A3E
:100922000079261208007B007A007926E4FDFF1286
:100932000A58E4FF74212FF8EF26F60FBF05F57B66
:0F094200007A007921753E057D9012095180FEE3
:060800008B3A8A3B893CA3
:10080600AF401540EF70030208A4AB3DAA3EA93FD6
:10081600120A2DC4540FFFD394095012EF2430FE50
:10082600AB3A053CE53CAA3B7014053B8010EF242F
:1008360037FEAB3A053CE53CAA3B7002053B14F992
:10084600EE120A46AB3DAA3EA93F120A2D540FFFEF
:10085600D394095012EF2430FFAB3A053CE53CAA8D
:100866003B7014053B8010EF2437FFAB3A053CE59F
:100876003CAA3B7002053B14F9EF120A46AB3A0557
:100886003CE53CAA3B7002053B14F97420120A466B
:100896007401253FF53FE4353EF53E020806AB3AC6
:0808A600AA3BA93CE4020A464A
:1008AE008B3A8A3B893C8D3D120ACD7FA01209916D
:1008BE004005120A8080F1AF3D120991120ACD7FD8
:1008CE00A1120991E53ED3940140191209FAAB3AEF
:1008DE00053CE53CAA3B7002053B14F9EF120A46B3
:1008EE00153E80E01209C7AB3AAA3BA93CEF120AAB
:0408FE0046020A8024
:100951008B3A8A3B893C8D3DAF3E153EEF603012AC
:100961000ACD7FA01209914005120A8080F1AF3DA6
:10097100053D120991AB3A053CE53CAA3B700205E5
:100981003B14F9120A2DFF120991120A8080C92223
:100ACD00D2B6D2B700000000C2B600000000C2B717
:010ADD0022F6
:100A8000C2B7C2B600000000D2B700000000D2B664
:050A900000000000223F
:100991007E80EE601B5F7004C2B68002D2B600009A
:1009A1000000D2B700000000C2B7EEC313FE80E220
:1009B100D2B600000000D2B7A2B69200000000003B
:0509C100C2B7A200B363
:0109C600220E
:1009C700D2B67E80EE601D00000000D2B720B605CB
:1009D700F452078003EE420700000000C2B7EEC3DF
:1009E70013FE80E0D2B600000000D2B7000000007E
:0209F700C2B785
:0109F90022DB
:1009FA00D2B67E80EE601D00000000D2B720B60598
:100A0A00F452078003EE420700000000C2B7EEC3AB
:100A1A0013FE80E0C2B600000000D2B7000000005A
:020A2A00C2B751
:010A2C0022A7
:100AA9007580FFC290D291D295AF80C295EF20E7B1
:010AB900F646
:010ABA002219
:100ADE00AE07120AA9C290C2918E80D295C29522FB
:100A95007F38120ADE7F0C120ADE7F06120ADE7F1D
:040AA50001020ADE62
:100ABB00ED7004AC078004EF2440FCEC4480FF0293
:020ACB000ADE41
:100AEE00AE07120AA9D290C2918E80D295C29522DB
:100A58008B3A8A3B893C120ABBAB3AAA3BA93C12A7
:100A68000A2D6013053CE53C7002053B14F9120A97
:080A78002DFF120AEE80E222BC
:100A2D00BB010689828A83E0225002E722BBFE02C7
:090A3D00E32289828A83E49322FA
:100A4600BB010689828A83F0225002F722BBFE018F
:020A5600F32289
:00000001FF
