:03000000020800F3
:0C080000787FE4F6D8FD758120020847DF
:0A091E00C0F9A4B0999282F880900D
:10090800C101C100060AFFFFFFFFFFFF0110000140
:0509180008FF010900C9
:10088C0075A0F7D293C294758901758CBC758A6773
:10089C00D28CC290C291C2927580C0D2AFD2A93014
:1008AC0001FD3000FAC200C2010510E510C3940A24
:0F08BC004003E4F510E51090091E93F58080E0ED
:03000B000208CB1D
:0408CB00C0E0C0D0F9
:1008CF0020010530A702050930010520A7020509FF
:1008DF0020010CE509C394044005750900D20130CD
:1008EF00010CE509C394044005750900D200758C0D
:0408FF00BC758A67D3
:05090300D0D0D0E0326D
:10080C0002088CE493A3F8E493A34003F68001F26E
:10081C0008DFF48029E493A3F85407240CC8C333ED
:10082C00C4540F4420C8834004F456800146F6DFBC
:10083C00E4800B0102040810204080900908E47E3B
:10084C00019360BCA3FF543F30E509541FFEE493B1
:10085C00A360010ECF54C025E060A840B8E493A378
:10086C00FAE493A3F8E493A3C8C582C8CAC583CAA3
:10087C00F0A3C8C582C8CAC583CADFE9DEE780BE5B
:01091D0000D9
:00000001FF
