:03000000020A7C75
:0C0A7C00787FE4F6D8FD758139020AC3CA
:0D0CE2007765656B000000162310022400EA
:050CEF00C10001080036
:100998007521AAD2AF7F017E00120B08120BF91243
:1009A8000C663000FDC2007B007A007922120BA988
:1009B800E521652260EC752A32752B30E528C45490
:1009C8000F2430F52CE528540F2430F52D752E2DE5
:1009D800E526C4540F2430F52FE526540F2430F5AE
:1009E8003075312DE525C4540F2430F532E52554F2
:1009F8000F2430F533E4F534FB7A00792AFDFF1231
:100A08000BD1E527540F2430F52AE4F52B7BFF7A28
:100A18000C79E2FD7F0B120BD17B007A00792AE476
:100A2800FD7F0F120BD1E524C4540F2430F52AE5BD
:100A380024540F2430F52B752C3AE523C4540F2485
:100A480030F52DE523540F2430F52E752F3AE52285
:100A5800C4540F2430F530E522540F2430F531E426
:100A6800F532FB7A00792A7D017F04120BD18522A9
:040A7800210209AAA4
:100C34007E01EE60135F6004D2B48002C2B4D2B508
:0A0C4400C2B5EE25E0FE80EAD2B44E
:010C4E002283
:100C4F00E4FF7E01EE600F30B4024207D2B5C2B5A9
:060C5F00EE25E0FE80EE30
:010C6500226C
:100C7A00D297EF25E04480FF120C34AF05120C34F2
:030C8A00C29722EC
:100CB100D297EF25E04481FF120C34120C4FC297FA
:010CC1002210
:060B81008B368A3789382B
:100B8700D2977FBE120C34E4FDAB36AA37A9388D55
:100B970082758300120819FF120C340DBD08EAC2D2
:010BA70097B6
:010BA800222A
:060BA9008B368A37893803
:100BAF00D2977FBF120C34E4FD120C4FAB36AA372D
:100BBF00A9388D82758300EF1208460DBD08EAC271
:010BCF00978E
:010BD0002202
:100BF900C297C2B5E4FF120CB1EF30E710E4FD7FF4
:0D0C090007120C7A7BFF7A0C79E7120B8141
:010C160022BB
:100B080075390075381075370E753600E4FCFDAB85
:100B180039AA38A937A836120868E47BE87A03F9B5
:100B2800F81208F38F398E388D378C36C3E495392F
:100B3800F539E49538F53874019537F537E4953685
:100B4800F536E539240CF539E43538F538E4353728
:100B5800F537E43536F536AF39AE38AD37FC7808B9
:100B68001209858F0985390A5389F0438901850956
:080B78008C850A8AD2A9D28CF7
:010B80002252
:03000B00020C17CD
:040C1700C0E0C0D0A9
:100C1B0085098C850A8A0508E508C394C8400575C3
:040C2B000800D200EB
:050C2F00D0D0D0E0323E
:100C8D007580FFC290D291D295AF80C295EF20E7CB
:010C9D00F660
:010C9E002233
:100CC200AE07120C8DC290C2918E80D295C295222F
:100CD200AE07120C8DD290C2918E80D295C295220F
:100C9F00ED7004AC078004EF2440FCEC4480FF02AD
:020CAF000CC275
:100BD1008B368A378938120C9FAB36AA37A938125F
:100BE100080060130538E5387002053714F912085A
:080BF10000FF120CD280E22289
:100C66007F38120CC27F0C120CC27F06120CC27F98
:040C760001020CC2A9
:100A8800020998E493A3F8E493A34003F68001F2E3
:100A980008DFF48029E493A3F85407240CC8C3336F
:100AA800C4540F4420C8834004F456800146F6DF3E
:100AB800E4800B0102040810204080900CEFE47ED3
:100AC800019360BCA3FF543F30E509541FFEE49333
:100AD800A360010ECF54C025E060A840B8E493A3FA
:100AE800FAE493A3F8E493A3C8C582C8CAC583CA25
:100AF800F0A3C8C582C8CAC583CADFE9DEE780BEDD
:010CF40000FF
:10080000BB010689828A83E0225002E722BBFE02F6
:09081000E32289828A83E4932229
:10081900BB010CE58229F582E5833AF583E0225094
:1008290006E92582F8E622BBFE06E92582F8E222DE
:0D083900E58229F582E5833AF583E49322F8
:10084600F8BB010DE58229F582E5833AF583E8F0E8
:10085600225006E92582C8F622BBFE05E92582C894
:02086600F2227C
:10086800E88FF0A4CC8BF0A42CFCE98EF0A42CFC2F
:100878008AF0EDA42CFCEA8EF0A4CDA8F08BF0A4AD
:100888002DCC3825F0FDE98FF0A42CCD35F0FCEB0C
:100898008EF0A4FEA9F0EB8FF0A4CFC5F02ECD39D1
:0F08A800FEE43CFCEAA42DCE35F0FDE43CFC223E
:1008B70075F008758200EF2FFFEE33FECD33CDCCF8
:1008C70033CCC58233C5829BED9AEC99E58298407B
:1008D7000CF582EE9BFEED9AFDEC99FC0FD5F0D658
:1008E700E4CEFBE4CDFAE4CCF9A88222B800C1B982
:1008F7000059BA002DEC8BF084CFCECDFCE5F0CBC0
:10090700F97818EF2FFFEE33FEED33FDEC33FCEBF8
:1009170033FB10D703994004EB99FB0FD8E5E4F9B3
:10092700FA227818EF2FFFEE33FEED33FDEC33FCA0
:10093700C933C910D7059BE99A4007EC9BFCE99A94
:10094700F90FD8E0E4C9FAE4CCFB2275F010EF2FD9
:10095700FFEE33FEED33FDCC33CCC833C810D707D9
:100967009BEC9AE899400AED9BFDEC9AFCE899F814
:0E0977000FD5F0DAE4CDFBE4CCFAE4C8F922A7
:10098500E8600FECC313FCED13FDEE13FEEF13FF50
:03099500D8F12274
:00000001FF
