:03000000020A18D9
:0C0A1800787FE4F6D8FD758156020A5F75
:100D0200313233263435362537383928301B0D2712
:080D12000E0C0D090B0307068E
:100C46001047010101010101010101010101010139
:100C56000101044300000000C1001021010101014F
:100C66000101010101010101010101010131001030
:100C760032FFFFFFFFFFFFFFFFFFFFFFFFFFFFFF4B
:060C8600FF014200C10164
:100D1A00D2AF758901758CFC758A67D2A9D28C12FB
:040D2A000B1980FB26
:100CD1008F0E8E0D8D0C8C0BC2AFE47FEC7E0FFD61
:100CE100FCAB0EAA0DA90CA80B120812E47B687AC2
:100CF10001F9F8120C8D8F468E458D448C43D2AF8D
:010D010022CF
:0E0D2E00C2AFE4F546F545F544F543D2AF22D9
:020B8C008F0ACE
:100B8E00E50AC394304030E50AD394395029200049
:100B9E000EEF24D0FFE434FFFE7C017D68800DE56E
:100BAE000A24D0FFE434FFFE7CFE7D98120800EE8E
:100BBE003395E0FDFC802CE50AB42603C20022E545
:100BCE000AB42803D20022E50AB4250A7F5A7E0011
:100BDE007D007C00800DE50AB4270B7FA67EFF7D8D
:0E0BEE00FF7CFF020CD1E50AB41B03120D2E92
:010BFC0022D6
:100B1900E4F508E4F509E50825E025E02447250979
:100B2900F8E6FFE50825E025E024212509F8E6FE99
:100B39006F603DEE6020E50825E025E02402F5829E
:100B4900E4340DF583E5822509F582E43583F583DF
:100B5900E493FF120B8CE50825E025E024472509DD
:100B6900F8E6FFE50825E025E024212509F8A60790
:100B79000509E509C39404409D0508E508C39404E3
:020B8900409199
:010B8B002247
:10094500E53125E025E02432F8E625E0FFA2A4E420
:10095500334FFFE53125E025E02432F8A607E531E0
:1009650025E025E02433F8E625E0FFA2A5E4334F92
:10097500FFE53125E025E02433F8A607E53125E03C
:1009850025E02434F8E625E0FFA2A6E4334FFFE591
:100995003125E025E02434F8A607E53125E025E0FA
:1009A5002435F8E625E0FFA2A7E4334FFFE531251E
:1009B500E025E02435F8A607E4FFE53125E025E04C
:1009C50024322FF8E6540FFE700EE53125E025E0C0
:1009D50024472FF8E4F6800FBE0F0CE53125E025FE
:1009E500E024472FF876010FBF04CF0531533103BB
:1009F500E53114600F14601114601324037013D2D1
:100A0500A0C2A322D2A3C2A222D2A2C2A122D2A153
:020A1500C2A07D
:010A170022BC
:100AA400AF46AE45AD44AC43EC4D4E4F6063E4FFFE
:100AB400FEFDFCAB46AA45A944A843D312086140F5
:100AC4001A054274FF2546F546E54534FFF545E52C
:100AD4004434FFF544E54334FF8021AF46AE45ADD1
:100AE40044AC43EC33501A1542E4FAF9F8EF24010C
:100AF400F546EA3EF545E93DF544E83CF543534205
:100B040007AF905307F0E542900D129342078F9080
:040B14002243900FD9
:010B180022BA
:03000B00020BFDE8
:100BFD00C0E0C0F0C083C082C0D075D000C000C0BE
:0D0C0D0001C002C003C004C005C006C0073E
:100C1A00758CFC758A67120945B201300103120A04
:010C2A00A425
:100C2B00D007D006D005D004D003D002D001D0001D
:0B0C3B00D0D0D082D083D0F0D0E032C7
:100A2400020D1AE493A3F8E493A34003F68001F2C1
:100A340008DFF48029E493A3F85407240CC8C333D3
:100A4400C4540F4420C8834004F456800146F6DFA2
:100A5400E4800B0102040810204080900C46E47EE0
:100A6400019360BCA3FF543F30E509541FFEE49397
:100A7400A360010ECF54C025E060A840B8E493A35E
:100A8400FAE493A3F8E493A3C8C582C8CAC583CA89
:100A9400F0A3C8C582C8CAC583CADFE9DEE780BE41
:010C8C000067
:10080000EF8DF0A4A8F0CF8CF0A428CE8DF0A42E0C
:02081000FE22C6
:10081200E88FF0A4CC8BF0A42CFCE98EF0A42CFC85
:100822008AF0EDA42CFCEA8EF0A4CDA8F08BF0A403
:100832002DCC3825F0FDE98FF0A42CCD35F0FCEB62
:100842008EF0A4FEA9F0EB8FF0A4CFC5F02ECD3927
:0F085200FEE43CFCEAA42DCE35F0FDE43CFC2294
:100C8D00C2D5E830E70FB2D5E4C39BFBE49AFAE492
:100C9D0099F9E498F8EC30E717B2D5120CC31208A5
:100CAD00B3E4C39BFBE49AFAE499F9E498F8800362
:100CBD001208B330D50DE4C39FFFE49EFEE49DFD05
:040CCD00E49CFC2285
:10086100EB9FF5F0EA9E42F0E99D42F0EC6480C80E
:0608710064809845F022AE
:1008770075F008758200EF2FFFEE33FECD33CDCC38
:1008870033CCC58233C5829BED9AEC99E5829840BB
:100897000CF582EE9BFEED9AFDEC99FC0FD5F0D698
:1008A700E4CEFBE4CDFAE4CCF9A88222B800C1B9C2
:1008B7000059BA002DEC8BF084CFCECDFCE5F0CB00
:1008C700F97818EF2FFFEE33FEED33FDEC33FCEB39
:1008D70033FB10D703994004EB99FB0FD8E5E4F9F4
:1008E700FA227818EF2FFFEE33FEED33FDEC33FCE1
:1008F700C933C910D7059BE99A4007EC9BFCE99AD5
:10090700F90FD8E0E4C9FAE4CCFB2275F010EF2F19
:10091700FFEE33FEED33FDCC33CCC833C810D70719
:100927009BEC9AE899400AED9BFDEC9AFCE899F854
:0E0937000FD5F0DAE4CDFBE4CCFAE4C8F922E7
:00000001FF
