:030000000208E40F
:0C08E400787FE4F6D8FD75810902092B2D
:060A53000108000109008A
:10097000D2AF7589017FA07E0F120A1E900000AFD2
:1009800082AE83E4FCFD7B407A9CF9F8D312080028
:100990004003A380EA120A5AE4F583F582AF82AEDF
:1009A00083E4FCFD7B407A9CF9F8D31208004003F5
:1009B000A380EA7FE87E03120A1EE4F583F582AF86
:1009C00082AE83E4FCFD7B407A9CF9F8D3120800E8
:0A09D0004003A380EA120A5A809B3C
:100A1E00EF25E0FFEE33AB07FAE4F9F8FF7E107D29
:100A2E000EFC1209DAC3E49FFFE49EAD07F5088DB4
:0B0A3E0009758CFF758AFED2A9D28CCE
:010A4900228A
:050A5A00C2A9C28C22BC
:03000B00020A4A9C
:090A4A0085088C85098AB29632F8
:1008F000020970E493A3F8E493A34003F68001F2A5
:1009000008DFF48029E493A3F85407240CC8C33308
:10091000C4540F4420C8834004F456800146F6DFD7
:10092000E4800B0102040810204080900A53E47E0A
:10093000019360BCA3FF543F30E509541FFEE493CC
:10094000A360010ECF54C025E060A840B8E493A393
:10095000FAE493A3F8E493A3C8C582C8CAC583CABE
:10096000F0A3C8C582C8CAC583CADFE9DEE780BE76
:010A5900009C
:1009DA00C2D5E830E70FB2D5E4C39BFBE49AFAE448
:1009EA0099F9E498F8EC30E717B2D5120A10120810
:1009FA0052E4C39BFBE49AFAE499F9E498F8800379
:100A0A0012085230D50DE4C39FFFE49EFEE49DFD1B
:040A1A00E49CFC223A
:10080000EB9FF5F0EA9E42F0E99D42F0EC6480C86F
:0608100064809845F0220F
:1008160075F008758200EF2FFFEE33FECD33CDCC99
:1008260033CCC58233C5829BED9AEC99E58298401C
:100836000CF582EE9BFEED9AFDEC99FC0FD5F0D6F9
:10084600E4CEFBE4CDFAE4CCF9A88222B800C1B923
:100856000059BA002DEC8BF084CFCECDFCE5F0CB61
:10086600F97818EF2FFFEE33FEED33FDEC33FCEB9A
:1008760033FB10D703994004EB99FB0FD8E5E4F955
:10088600FA227818EF2FFFEE33FEED33FDEC33FC42
:10089600C933C910D7059BE99A4007EC9BFCE99A36
:1008A600F90FD8E0E4C9FAE4CCFB2275F010EF2F7B
:1008B600FFEE33FEED33FDCC33CCC833C810D7077B
:1008C6009BEC9AE899400AED9BFDEC9AFCE899F8B6
:0E08D6000FD5F0DAE4CDFBE4CCFAE4C8F92249
:00000001FF
